:03000000020921D1
:0C092100787FE4F6D8FD75810B02080019
:10086600474153204C4556454C3A20005354415479
:1008760055533A2044414E47455220005354415463
:0C08860055533A204E4F524D414C20007B
:0608BD00D2B57F017E00B0
:1008C300E4FDFCC3ED9FEC9E5015E4FBFA0BBB006B
:0F08D300010ABA04F8BBFBF50DBD00010C80E46F
:0108E20022F3
:0A092D008F80C2B31208BDC2B522CC
:0A0937008F80D2B31208BDC2B522B2
:1008E3008B098A0A890BAB09AA0AA90B12090860AA
:1008F30013050BE50B7002050A14F9120908FF1220
:05090300093780E2222B
:10089200A907E975F064842430FF120937E975F07D
:1008A2006484E5F075F00A842430FF120937E97593
:0B08B200F00A84E5F02430FF02093753
:100800007F3812092D7F0C12092D7F0112092DC28C
:10081000B61208BFD2B620B2FDC2B7859008D2B7D3
:100820007F8012092D7BFF7A0879661208E3AF08F2
:10083000120892E508D394964011D2A0D2A17FC0AD
:1008400012092D7BFF7A087972800FC2A0C2A17FA6
:10085000C012092D7BFF7A0879821208E37F0A7E95
:06086000001208C380A98C
:10090800BB010689828A83E0225002E722BBFE02ED
:09091800E32289828A83E4932220
:00000001FF
